:020000040000FA
:100000000C9458000C9480000C9480000C94800098
:100010000C9480000C9480000C9480000C94800060
:100020000C9480000C9480000C9480000C94800050
:100030000C9480000C9480000C9480000C94800040
:100040000C9460040C9480000C9480000C9480004C
:100050000C9480000C9480000C9480000C94800020
:100060000C94AA040C9480000000000025002800D5
:100070002B00040404040404040402020202020229
:10008000030303030303010204081020408001025C
:1000900004081020010204081020000000080002DB
:1000A0000100000304070000000000000000C90573
:1000B00011241FBECFEFD8E0DEBFCDBF11E0A0E01E
:1000C000B1E0E0EEFEE002C005900D92A238B1076B
:1000D000D9F722E0A2E8B1E001C01D92AE35B20727
:1000E000E1F710E0C8E5D0E004C02197FE010E94CE
:1000F0006807C735D107C9F70E94EA050C946E0757
:100100000C94000008950895AF92BF92CF92DF92B1
:10011000EF92FF920F931F93CF93DF936C017B01BC
:100120008B01040F151FEB015E01AE18BF08C0174D
:10013000D10759F06991D601ED91FC910190F081C0
:10014000E02DC6010995892B79F7C501DF91CF9183
:100150001F910F91FF90EF90DF90CF90BF90AF90E5
:10016000089590E0FC01E656FF4F2491FC01EA5708
:10017000FF4F3491FC01EE58FF4FE491EE23C9F09C
:10018000222339F0233001F1A8F4213019F1223073
:1001900029F1F0E0EE0FFF1FE859FF4FA591B49150
:1001A0008FB7F894EC91611126C030953E233C93B3
:1001B0008FBF08952730A9F02830C9F0243049F7BF
:1001C000809180008F7D03C0809180008F77809325
:1001D0008000DFCF84B58F7784BDDBCF84B58F7D82
:1001E000FBCF8091B0008F778093B000D2CF809109
:1001F000B0008F7DF9CF3E2BDACF3FB7F8948091D6
:10020000390290913A02A0913B02B0913C0226B58E
:10021000A89B05C02F3F19F00196A11DB11D3FBF3E
:10022000BA2FA92F982F8827BC01CD01620F711D0D
:10023000811D911D42E0660F771F881F991F4A9507
:10024000D1F708958F929F92AF92BF92CF92DF9293
:10025000EF92FF924B015C010E94FD006B017C015B
:100260000E94FD006C197D098E099F09683E73404C
:1002700081059105A8F321E0821A9108A108B1082F
:1002800088EEC80E83E0D81EE11CF11C8114910495
:10029000A104B10429F7FF90EF90DF90CF90BF90B9
:1002A000AF909F908F9008952091EA01260F3327F9
:1002B000331F21323105ECF420910E02FC0190E055
:1002C00080E0243069F082E00895A091EA01219154
:1002D000AC0146535E4FA40FB52FB11D2C93019670
:1002E000861798F38091EA01680F6093EA0180E035
:1002F000089581E0089510920E0281E0809310022B
:1003000010920F0261E082E10E94B10061E083E19E
:100310000E94B100E9EBF0E080818E7F80838081D4
:100320008D7F808388E48093B80085E48093BC004F
:100330000895CF93DF9391E09093C9018823B9F09A
:10034000C091B800D091BA008091BC008A7B8093A4
:10035000BC0060E082E10E94B10060E083E10E94A5
:10036000B1000E947B01D093BA00C093B800DF9126
:10037000CF9108950895E091440280914302E817D7
:1003800030F4F0E0EC55FE4F808190E008958FEF5F
:100390009FEF089590914402809143022FEF3FEF29
:1003A000981748F4E92FF0E0EC55FE4F208130E03B
:1003B0009F5F90934402C9010895809143029091F8
:1003C0004402891B990B0895CF92DF92EF92FF921E
:1003D0000F931F93CF93DF937C01CB018A01209170
:1003E000A301222389F0EB016B01C40ED51ECC15AD
:1003F000DD0569F06991D701ED91FC910190F081E3
:10040000E02DC7010995F3CF642F0E945401C80164
:10041000DF91CF911F910F91FF90EF90DF90CF90E0
:100420000895CF93DF931F92CDB7DEB769832091F4
:10043000A3012223F9F020914102203258F021E05B
:1004400030E0FC013383228390E080E00F90DF9165
:10045000CF91089580914202E82FF0E0ED57FE4FD2
:10046000998190838F5F809342028093410281E063
:1004700090E0ECCF61E0CE0101960E945401F7CFED
:10048000CF92DF92EF92FF920F931F93CF93DF9360
:10049000FC01C48121E02093A301C093820110924A
:1004A0004202109241028485682B85E492E00E940A
:1004B0001102D0914102D13208F092C00E94FD0099
:1004C0006B017C0180910E02811165C082E08093F6
:1004D0000E0281E0809310028FEF80930D02109244
:1004E0003202D0933102A3E8B1E0E1E1F2E080E032
:1004F000D81385C01092330280913302CC0FC82BE1
:10050000C093330280910F02813009F07CC01092B9
:100510000F020E94FD006B017C01809133028093E9
:10052000BB008091C5019091C601A091C701B09117
:10053000C801892B8A2B8B2B99F00E94FD0000911A
:10054000C5011091C6012091C7013091C8016C19F5
:100550007D098E099F090617170728073907E0F15B
:100560008091BC0083FDD9CF85EC8093BC000E94B4
:10057000FD006B017C0180910E02823009F445C0C0
:1005800080910D028F3F61F180910D02803241F127
:1005900080910D0225C08091C5019091C601A09166
:1005A000C701B091C801892B8A2B8B2B09F48ACF04
:1005B0000E94FD000091C5011091C6012091C70164
:1005C0003091C8016C197D098E099F09061717071C
:1005D0002807390708F076CF8091C4010E9499015D
:1005E00010924202109241021092A301DF91CF912A
:1005F0001F910F91FF90EF90DF90CF9008959D9104
:1006000091938F5F75CF85EEB0CF8091C5019091AA
:10061000C601A091C701B091C801892B8A2B8B2BF1
:1006200009F4A9CF0E94FD000091C5011091C601F7
:100630002091C7013091C8016C197D098E099F096D
:10064000061717072807390708F095CFC5CF089573
:1006500090E080E008958F929F92AF92BF920F93A7
:100660001F93CF93DF93CDB7DEB7A1970FB6F89462
:10067000DEBF0FBECDBF19A2423008F44AE08E01A2
:100680000F5D1F4F842E912CB12CA12CA50194013C
:100690000E944607E62FB901CA01EA3044F5E05D41
:1006A000D801EE938D01232B242B252B79F790E095
:1006B00080E0109769F0FD0101900020E9F7319783
:1006C000AF014A1B5B0BBD0181E592E00E948400F3
:1006D000A1960FB6F894DEBF0FBECDBFDF91CF91CC
:1006E0001F910F91BF90AF909F908F900895E95CFC
:1006F000D7CFFC0101900020E9F73197AF01481BEB
:10070000590BBC0181E592E00C9484000F931F9378
:10071000CF938C01C62F0E9440026C2F6460C801E9
:100720000E9440026C2F6B7FC8010E94400283EC44
:1007300090E00197F1F7CF911F910F9108950F93DA
:100740001F93CF93DF938C01D62FC42F607F642B30
:100750000E94860380E1D89FB00111246C2BC80150
:10076000DF91CF911F910F910C948603CF93DF936C
:10077000CDB7DEB728970FB6F894DEBF0FBECDBF5A
:1007800098E0E0E0F1E0DE01119601900D929A957B
:10079000E1F790915902961708F46FEF262F30E099
:1007A000220F331F41E050E04C0F5D1F240F351F17
:1007B000F9016081680F606840E081E592E0289669
:1007C0000FB6F894DEBF0FBECDBFDF91CF910C9472
:1007D0009F0340E061E081E592E00E949F038BE38C
:1007E0009FE10197F1F780915A02882321F060E0A0
:1007F00080E00C94B603089541E00E949F0381E0DD
:1008000090E00895CF92DF92EF92FF926B017C010E
:1008100041E06DE281E592E00E949F036627772721
:10082000CB016C197D098E099F094AE00E942B03B8
:100830000196FF90EF90DF90CF900895BC01990F43
:10084000880B990B97FD0C9402044AE00C942B033F
:1008500085ED8093BC008091C5019091C601A09167
:10086000C701B091C8010796A11DB11D23E0B6953F
:10087000A795979587952A95D1F72091BC0024FDDF
:1008800003C010920E0208954091C5015091C60117
:100890006091C7017091C801452B462B472B69F326
:1008A0000097A105B10541F025E32A95F1F7000075
:1008B0000197A109B109E1CF8091C4010C9499017C
:1008C0001F920F920FB60F9211242F933F938F9385
:1008D0009F93AF93BF938091350290913602A09180
:1008E0003702B09138023091340223E0230F2D37C4
:1008F00058F50196A11DB11D209334028093350255
:1009000090933602A0933702B09338028091390257
:1009100090913A02A0913B02B0913C020196A11D38
:10092000B11D8093390290933A02A0933B02B09399
:100930003C02BF91AF919F918F913F912F910F906A
:100940000FBE0F901F90189526E8230F0296A11D49
:10095000B11DD2CF1F920F920FB60F9211242F9379
:100960003F934F935F936F937F938F939F93AF9337
:10097000BF93EF93FF938091B900887F803609F48D
:100980004AC0F0F5883209F4A7C018F5803109F49F
:100990009BC0B8F4882309F4F9C0883009F494C0E6
:1009A000FF91EF91BF91AF919F918F917F916F9147
:1009B0005F914F913F912F910F900FBE0F901F901D
:1009C0001895883109F488C0803251F780930D0260
:1009D00014C0803409F49DC040F48033B9F38833E7
:1009E000F9F680930D0285ECB0C0803509F485C01E
:1009F000883509F496C0883499F60E942804D0CF2F
:100A0000883909F48CC038F5883729F050F48836D5
:100A100011F0803729F683E080930E0210920C02C9
:100A200057C0883809F47BC0803919F0803809F044
:100A3000B7CF80910C02803208F071C0E0910C02B7
:100A400081E08E0F80930C028091BB00F0E0E451B6
:100A5000FE4F80833DC0803B39F0E0F4803A09F4DA
:100A600079C0883A09F09CCF84E080930E021092FE
:100A7000EB011092EA01E0913F02F09140020995EA
:100A80008091EA0181110FC081E08093EA01109208
:100A9000CA0109C0803C09F4A6CF883C09F4A3CF61
:100AA000883B09F07DCFE091EB0181E08E0F8093D0
:100AB000EB01F0E0E653FE4F80818093BB00909104
:100AC000EB018091EA0129C0809133028093BB0041
:100AD00085EC8093BC0064CF90913202809131020A
:100AE000981758F5E091320281E08E0F8093320220
:100AF000F0E0EF5EFD4F8081E9CFE091320281E0CE
:100B00008E0F809332028091BB00F0E0EF5EFD4FCC
:100B1000808390913202809131029817C8F285E863
:100B2000D8CFE091320281E08E0F80933202809123
:100B3000BB00F0E0EF5EFD4F8083809110028111D9
:100B40005CCF81E080930F0284EA8093BC00109216
:100B50000E0226CF85EC8093BC0010920E0280918D
:100B60000C02803230F4E0910C02F0E0E451FE4FD0
:100B7000108260910C0270E0E0913D02F0913E0223
:100B80008CEE91E0099510920C020ACF10920D02A2
:100B900034CFE5E4F2E01382128288EE93E0A0E025
:100BA000B0E084839583A683B7838CE091E0918342
:100BB0008083E1E5F2E0138212828EE191E091837D
:100BC0008083118687E2848384E1828784E083873F
:100BD00014860895789484B5826084BD84B581605C
:100BE00084BD85B5826085BD85B5816085BD8091F8
:100BF0006E00816080936E00109281008091810070
:100C00008260809381008091810081608093810067
:100C1000809180008160809380008091B100846029
:100C20008093B1008091B00081608093B00080918A
:100C30007A00846080937A0080917A008260809349
:100C40007A0080917A00816080937A0080917A00A6
:100C5000806880937A001092C10010924402109232
:100C6000430210924202109241020E947B0182E8EC
:100C700090E09093400280933F0283E890E090934D
:100C80003E0280933D021092560280915C028230B7
:100C900018F098E0909356028093590262E370E056
:100CA00080E090E00E94220160915D0281E592E087
:100CB0000E94400268EE73E080E090E00E94220112
:100CC00060E381E592E00E948603CBE4D6E4CE01A6
:100CD0000197F1F760E381E592E00E948603219796
:100CE000F1F760E381E592E00E94860383E592E0FC
:100CF0000197F1F760E281E592E00E94860360913E
:100D00005602606240E081E592E00E949F0384E029
:100D10008093570240E06CE081E592E00E949F03DF
:100D20000E94E90382E08093580240E066E081E59A
:100D300092E00E949F0340E062E081E592E00E9421
:100D40009F038BE39FE10197F1F788E080935D02B9
:100D500060E081E592E00E94400260E080E00E9455
:100D6000B60386E291E00E94790361E080E00E9490
:100D7000B60387E391E00E94790368E873E180E0BD
:100D800090E00E9422010E94E90360E084E00E945A
:100D9000B60388E491E00E94790361E084E00E9458
:100DA000B60380E591E00E94790360ED77E080E092
:100DB00090E00E942201C0E0D0E0C12CD12C76014D
:100DC0000E94E90360E082E00E94B60388E591E0BA
:100DD0000E94790361E084E00E94B60385E691E019
:100DE0000E9479034AE0C701B6010E942B0360E22A
:100DF00073E080E090E00E9422018FEFC81AD80AC9
:100E0000E80AF80A85E0C816D104E104F104C1F645
:100E10000E94E90360E080E00E94B6038DE691E065
:100E20000E94790360E086E00E94B60384E290E0CD
:100E30000E941E0460E08AE00E94B60384E791E00D
:100E40000E94790361E080E00E94B60386E791E0AA
:100E50000E94790361E086E00E94B6038AE590E093
:100E60000E941E0461E08AE00E94B6038EE791E0D2
:100E70000E94790360E47FE180E090E00E9422011B
:100E8000209709F49ACF0E94000097CFA1E21A2E72
:100E9000AA1BBB1BFD010DC0AA1FBB1FEE1FFF1F1E
:100EA000A217B307E407F50720F0A21BB30BE40B6E
:100EB000F50B661F771F881F991F1A9469F76095B5
:100EC0007095809590959B01AC01BD01CF0108956F
:100ED000EE0FFF1F0590F491E02D0994F894FFCFD9
:100EE0000000400014005400000000001102E40162
:100EF0002803BA01DD01CA01BB0100000000FC03A8
:100F0000840028032703204845414C5448204D4F76
:100F10004E49544F52200020202020205359535432
:100F2000454D20202020200057454C434F4D450083
:100F30004E4F44452030310053595354454D2043C2
:100F40004845434B00574149542E2E2E0054454DE1
:100F5000503A2000430048454152543A2000425044
:020F60004D0042
:107E0000112484B714BE81FFF0D085E080938100F7
:107E100082E08093C00088E18093C10086E0809377
:107E2000C20080E18093C4008EE0C9D0259A86E02C
:107E300020E33CEF91E0309385002093840096BBD3
:107E4000B09BFECF1D9AA8958150A9F7CC24DD24C4
:107E500088248394B5E0AB2EA1E19A2EF3E0BF2EE7
:107E6000A2D0813461F49FD0082FAFD0023811F036
:107E7000013811F484E001C083E08DD089C08234E0
:107E800011F484E103C0853419F485E0A6D080C0E4
:107E9000853579F488D0E82EFF2485D0082F10E0AE
:107EA000102F00270E291F29000F111F8ED06801E7
:107EB0006FC0863521F484E090D080E0DECF843638
:107EC00009F040C070D06FD0082F6DD080E0C81688
:107ED00080E7D80618F4F601B7BEE895C0E0D1E017
:107EE00062D089930C17E1F7F0E0CF16F0E7DF06D8
:107EF00018F0F601B7BEE89568D007B600FCFDCFD4
:107F0000A601A0E0B1E02C9130E011968C91119780
:107F100090E0982F8827822B932B1296FA010C0160
:107F200087BEE89511244E5F5F4FF1E0A038BF0790
:107F300051F7F601A7BEE89507B600FCFDCF97BE46
:107F4000E89526C08437B1F42ED02DD0F82E2BD052
:107F50003CD0F601EF2C8F010F5F1F4F84911BD097
:107F6000EA94F801C1F70894C11CD11CFA94CF0C13
:107F7000D11C0EC0853739F428D08EE10CD085E9AC
:107F80000AD08FE07ACF813511F488E018D01DD067
:107F900080E101D065CF982F8091C00085FFFCCF94
:107FA0009093C60008958091C00087FFFCCF809118
:107FB000C00084FD01C0A8958091C6000895E0E648
:107FC000F0E098E1908380830895EDDF803219F02E
:107FD00088E0F5DFFFCF84E1DECF1F93182FE3DFCA
:107FE0001150E9F7F2DF1F91089580E0E8DFEE27F6
:047FF000FF270994CA
:027FFE00040479
:00000001FF
